{
  "transactions": [
    {
      "hash": "0x4ed18d95c5333de3d483094cb5bc7bbc3aa1741e496b3185757a9defa8f200f4",
      "transactionType": "CALL",
      "contractName": null,
      "contractAddress": "0xa4e64aabcae48a5f4c45d84dd2493b9fb3f81d84",
      "function": "createShipment(string,string,address,address,address,(string,string,string,uint256,address),(string,string,string,uint256,address),uint256,bool,bool,bytes32)",
      "arguments": [
        "Test Product",
        "Test Description",
        "0xa7e3397C9BD2470D1cFaf43f8533B5E39754cb1D",
        "0xa7e3397C9BD2470D1cFaf43f8533B5E39754cb1D",
        "0xa7e3397C9BD2470D1cFaf43f8533B5E39754cb1D",
        "(40.7128, -74.0060, New York, 1734276800, 0xa7e3397C9BD2470D1cFaf43f8533B5E39754cb1D)",
        "(34.0522, -118.2437, Los Angeles, 1734276800, 0xa7e3397C9BD2470D1cFaf43f8533B5E39754cb1D)",
        "1734881600",
        "true",
        "false",
        "0x90c7e956755a8f5559ee7f538e039a76a5882e4c1b58a80dc6f0c95ef7d36730"
      ],
      "transaction": {
        "from": "0xa7e3397c9bd2470d1cfaf43f8533b5e39754cb1d",
        "to": "0xa4e64aabcae48a5f4c45d84dd2493b9fb3f81d84",
        "gas": "0xeb3ef",
        "value": "0x0",
        "input": "0x2d16c0ba000000000000000000000000000000000000000000000000000000000000016000000000000000000000000000000000000000000000000000000000000001a0000000000000000000000000a7e3397c9bd2470d1cfaf43f8533b5e39754cb1d000000000000000000000000a7e3397c9bd2470d1cfaf43f8533b5e39754cb1d000000000000000000000000a7e3397c9bd2470d1cfaf43f8533b5e39754cb1d00000000000000000000000000000000000000000000000000000000000001e0000000000000000000000000000000000000000000000000000000000000034000000000000000000000000000000000000000000000000000000000676831400000000000000000000000000000000000000000000000000000000000000001000000000000000000000000000000000000000000000000000000000000000090c7e956755a8f5559ee7f538e039a76a5882e4c1b58a80dc6f0c95ef7d36730000000000000000000000000000000000000000000000000000000000000000c546573742050726f647563740000000000000000000000000000000000000000000000000000000000000000000000000000000000000000000000000000001054657374204465736372697074696f6e0000000000000000000000000000000000000000000000000000000000000000000000000000000000000000000000a000000000000000000000000000000000000000000000000000000000000000e0000000000000000000000000000000000000000000000000000000000000012000000000000000000000000000000000000000000000000000000000675ef6c0000000000000000000000000a7e3397c9bd2470d1cfaf43f8533b5e39754cb1d000000000000000000000000000000000000000000000000000000000000000734302e373132380000000000000000000000000000000000000000000000000000000000000000000000000000000000000000000000000000000000000000082d37342e3030363000000000000000000000000000000000000000000000000000000000000000000000000000000000000000000000000000000000000000084e657720596f726b00000000000000000000000000000000000000000000000000000000000000000000000000000000000000000000000000000000000000a000000000000000000000000000000000000000000000000000000000000000e0000000000000000000000000000000000000000000000000000000000000012000000000000000000000000000000000000000000000000000000000675ef6c0000000000000000000000000a7e3397c9bd2470d1cfaf43f8533b5e39754cb1d000000000000000000000000000000000000000000000000000000000000000733342e303532320000000000000000000000000000000000000000000000000000000000000000000000000000000000000000000000000000000000000000092d3131382e323433370000000000000000000000000000000000000000000000000000000000000000000000000000000000000000000000000000000000000b4c6f7320416e67656c6573000000000000000000000000000000000000000000",
        "nonce": "0x8",
        "chainId": "0x106a"
      },
      "additionalContracts": [],
      "isFixedGasLimit": false
    }
  ],
  "receipts": [
    {
      "status": "0x1",
      "cumulativeGasUsed": "0xb7109",
      "logs": [
        {
          "address": "0xa4e64aabcae48a5f4c45d84dd2493b9fb3f81d84",
          "topics": [
            "0x640b9962b0f6814cbde2db7f9f5839bc3f80a7226d13dd02b0249d8fff8a3e62",
            "0x0000000000000000000000000000000000000000000000000000000000000001",
            "0x000000000000000000000000a7e3397c9bd2470d1cfaf43f8533b5e39754cb1d"
          ],
          "data": "0x00000000000000000000000000000000000000000000000000000000000000400000000000000000000000000000000000000000000000000000000067683140000000000000000000000000000000000000000000000000000000000000000c546573742050726f647563740000000000000000000000000000000000000000",
          "blockHash": "0x1ddced34f60c498e184f1285e54828c44d060e3ecffbe861bcb6f59ac0aaf9f7",
          "blockNumber": "0xdcf9fa",
          "transactionHash": "0x4ed18d95c5333de3d483094cb5bc7bbc3aa1741e496b3185757a9defa8f200f4",
          "transactionIndex": "0x1",
          "logIndex": "0x0",
          "removed": false
        },
        {
          "address": "0xa4e64aabcae48a5f4c45d84dd2493b9fb3f81d84",
          "topics": [
            "0xb7f677009e40b63d956ecadcfcb1f65c754aa8f19532b58a315c47d23dfcbdcb",
            "0x000000000000000000000000a7e3397c9bd2470d1cfaf43f8533b5e39754cb1d",
            "0x0000000000000000000000000000000000000000000000000000000000000001"
          ],
          "data": "0x0000000000000000000000000000000000000000000000000000000000000001",
          "blockHash": "0x1ddced34f60c498e184f1285e54828c44d060e3ecffbe861bcb6f59ac0aaf9f7",
          "blockNumber": "0xdcf9fa",
          "transactionHash": "0x4ed18d95c5333de3d483094cb5bc7bbc3aa1741e496b3185757a9defa8f200f4",
          "transactionIndex": "0x1",
          "logIndex": "0x1",
          "removed": false
        },
        {
          "address": "0xa4e64aabcae48a5f4c45d84dd2493b9fb3f81d84",
          "topics": [
            "0xb7f677009e40b63d956ecadcfcb1f65c754aa8f19532b58a315c47d23dfcbdcb",
            "0x000000000000000000000000a7e3397c9bd2470d1cfaf43f8533b5e39754cb1d",
            "0x0000000000000000000000000000000000000000000000000000000000000001"
          ],
          "data": "0x0000000000000000000000000000000000000000000000000000000000000002",
          "blockHash": "0x1ddced34f60c498e184f1285e54828c44d060e3ecffbe861bcb6f59ac0aaf9f7",
          "blockNumber": "0xdcf9fa",
          "transactionHash": "0x4ed18d95c5333de3d483094cb5bc7bbc3aa1741e496b3185757a9defa8f200f4",
          "transactionIndex": "0x1",
          "logIndex": "0x2",
          "removed": false
        },
        {
          "address": "0xa4e64aabcae48a5f4c45d84dd2493b9fb3f81d84",
          "topics": [
            "0xb7f677009e40b63d956ecadcfcb1f65c754aa8f19532b58a315c47d23dfcbdcb",
            "0x000000000000000000000000a7e3397c9bd2470d1cfaf43f8533b5e39754cb1d",
            "0x0000000000000000000000000000000000000000000000000000000000000001"
          ],
          "data": "0x0000000000000000000000000000000000000000000000000000000000000005",
          "blockHash": "0x1ddced34f60c498e184f1285e54828c44d060e3ecffbe861bcb6f59ac0aaf9f7",
          "blockNumber": "0xdcf9fa",
          "transactionHash": "0x4ed18d95c5333de3d483094cb5bc7bbc3aa1741e496b3185757a9defa8f200f4",
          "transactionIndex": "0x1",
          "logIndex": "0x3",
          "removed": false
        },
        {
          "address": "0xa4e64aabcae48a5f4c45d84dd2493b9fb3f81d84",
          "topics": [
            "0xb7f677009e40b63d956ecadcfcb1f65c754aa8f19532b58a315c47d23dfcbdcb",
            "0x000000000000000000000000a7e3397c9bd2470d1cfaf43f8533b5e39754cb1d",
            "0x0000000000000000000000000000000000000000000000000000000000000001"
          ],
          "data": "0x0000000000000000000000000000000000000000000000000000000000000006",
          "blockHash": "0x1ddced34f60c498e184f1285e54828c44d060e3ecffbe861bcb6f59ac0aaf9f7",
          "blockNumber": "0xdcf9fa",
          "transactionHash": "0x4ed18d95c5333de3d483094cb5bc7bbc3aa1741e496b3185757a9defa8f200f4",
          "transactionIndex": "0x1",
          "logIndex": "0x4",
          "removed": false
        }
      ],
      "logsBloom": "0x00000000000030000000000000000000000000100000000000000000000000000000000000002000000000000000000000000000000000000000000000040000000000000000000000000000004000000000000000040000000100000000000000000000000000000000000000000000000000000000000000000000000000000000000200000800000000000000000000000000000000000000200000800000000000000800000000000000000000000000000000000000000000000000000000000000000000000000000000000000000000000000000000000000000040000000000000000000000000000000000000000000000000000000000000000000",
      "type": "0x2",
      "transactionHash": "0x4ed18d95c5333de3d483094cb5bc7bbc3aa1741e496b3185757a9defa8f200f4",
      "transactionIndex": "0x1",
      "blockHash": "0x1ddced34f60c498e184f1285e54828c44d060e3ecffbe861bcb6f59ac0aaf9f7",
      "blockNumber": "0xdcf9fa",
      "gasUsed": "0xaa506",
      "effectiveGasPrice": "0xfe",
      "from": "0xa7e3397c9bd2470d1cfaf43f8533b5e39754cb1d",
      "to": "0xa4e64aabcae48a5f4c45d84dd2493b9fb3f81d84",
      "contractAddress": null,
      "l1BaseFeeScalar": "0x2af8",
      "l1BlobBaseFee": "0x1",
      "l1BlobBaseFeeScalar": "0x109618",
      "l1Fee": "0x1fcfd63e155",
      "l1GasPrice": "0x9a798620a",
      "l1GasUsed": "0x12b8"
    }
  ],
  "libraries": [],
  "pending": [],
  "returns": {},
  "timestamp": 1734276820,
  "chain": 4202,
  "commit": "9754327"
}